{
  "_format": "hh-sol-artifact-1",
  "contractName": "EncryptedMedicalRecords",
  "sourceName": "contracts/EncryptedMedicalRecords.sol",
  "abi": [
    {
      "inputs": [],
      "stateMutability": "nonpayable",
      "type": "constructor"
    },
    {
      "anonymous": false,
      "inputs": [
        {
          "indexed": true,
          "internalType": "address",
          "name": "patient",
          "type": "address"
        },
        {
          "indexed": true,
          "internalType": "address",
          "name": "doctor",
          "type": "address"
        },
        {
          "indexed": false,
          "internalType": "uint256",
          "name": "timestamp",
          "type": "uint256"
        }
      ],
      "name": "DoctorAuthorized",
      "type": "event"
    },
    {
      "anonymous": false,
      "inputs": [
        {
          "indexed": true,
          "internalType": "address",
          "name": "doctor",
          "type": "address"
        },
        {
          "indexed": false,
          "internalType": "string",
          "name": "name",
          "type": "string"
        },
        {
          "indexed": false,
          "internalType": "string",
          "name": "specialty",
          "type": "string"
        },
        {
          "indexed": false,
          "internalType": "uint256",
          "name": "timestamp",
          "type": "uint256"
        }
      ],
      "name": "DoctorRegistered",
      "type": "event"
    },
    {
      "anonymous": false,
      "inputs": [
        {
          "indexed": true,
          "internalType": "address",
          "name": "patient",
          "type": "address"
        },
        {
          "indexed": true,
          "internalType": "address",
          "name": "doctor",
          "type": "address"
        },
        {
          "indexed": false,
          "internalType": "uint256",
          "name": "timestamp",
          "type": "uint256"
        }
      ],
      "name": "DoctorRevoked",
      "type": "event"
    },
    {
      "anonymous": false,
      "inputs": [
        {
          "indexed": true,
          "internalType": "address",
          "name": "patient",
          "type": "address"
        },
        {
          "indexed": true,
          "internalType": "address",
          "name": "accessor",
          "type": "address"
        },
        {
          "indexed": true,
          "internalType": "uint256",
          "name": "recordId",
          "type": "uint256"
        },
        {
          "indexed": false,
          "internalType": "uint256",
          "name": "timestamp",
          "type": "uint256"
        }
      ],
      "name": "RecordAccessed",
      "type": "event"
    },
    {
      "anonymous": false,
      "inputs": [
        {
          "indexed": true,
          "internalType": "address",
          "name": "patient",
          "type": "address"
        },
        {
          "indexed": true,
          "internalType": "address",
          "name": "doctor",
          "type": "address"
        },
        {
          "indexed": true,
          "internalType": "uint256",
          "name": "recordId",
          "type": "uint256"
        },
        {
          "indexed": false,
          "internalType": "string",
          "name": "examName",
          "type": "string"
        },
        {
          "indexed": false,
          "internalType": "uint256",
          "name": "timestamp",
          "type": "uint256"
        }
      ],
      "name": "RecordAdded",
      "type": "event"
    },
    {
      "anonymous": false,
      "inputs": [
        {
          "indexed": true,
          "internalType": "bytes32",
          "name": "role",
          "type": "bytes32"
        },
        {
          "indexed": true,
          "internalType": "bytes32",
          "name": "previousAdminRole",
          "type": "bytes32"
        },
        {
          "indexed": true,
          "internalType": "bytes32",
          "name": "newAdminRole",
          "type": "bytes32"
        }
      ],
      "name": "RoleAdminChanged",
      "type": "event"
    },
    {
      "anonymous": false,
      "inputs": [
        {
          "indexed": true,
          "internalType": "bytes32",
          "name": "role",
          "type": "bytes32"
        },
        {
          "indexed": true,
          "internalType": "address",
          "name": "account",
          "type": "address"
        },
        {
          "indexed": true,
          "internalType": "address",
          "name": "sender",
          "type": "address"
        }
      ],
      "name": "RoleGranted",
      "type": "event"
    },
    {
      "anonymous": false,
      "inputs": [
        {
          "indexed": true,
          "internalType": "bytes32",
          "name": "role",
          "type": "bytes32"
        },
        {
          "indexed": true,
          "internalType": "address",
          "name": "account",
          "type": "address"
        },
        {
          "indexed": true,
          "internalType": "address",
          "name": "sender",
          "type": "address"
        }
      ],
      "name": "RoleRevoked",
      "type": "event"
    },
    {
      "inputs": [],
      "name": "ADMIN_ROLE",
      "outputs": [
        {
          "internalType": "bytes32",
          "name": "",
          "type": "bytes32"
        }
      ],
      "stateMutability": "view",
      "type": "function"
    },
    {
      "inputs": [],
      "name": "DEFAULT_ADMIN_ROLE",
      "outputs": [
        {
          "internalType": "bytes32",
          "name": "",
          "type": "bytes32"
        }
      ],
      "stateMutability": "view",
      "type": "function"
    },
    {
      "inputs": [],
      "name": "DOCTOR_ROLE",
      "outputs": [
        {
          "internalType": "bytes32",
          "name": "",
          "type": "bytes32"
        }
      ],
      "stateMutability": "view",
      "type": "function"
    },
    {
      "inputs": [],
      "name": "MAX_EXAM_VALUE",
      "outputs": [
        {
          "internalType": "uint64",
          "name": "",
          "type": "uint64"
        }
      ],
      "stateMutability": "view",
      "type": "function"
    },
    {
      "inputs": [],
      "name": "MIN_EXAM_VALUE",
      "outputs": [
        {
          "internalType": "uint64",
          "name": "",
          "type": "uint64"
        }
      ],
      "stateMutability": "view",
      "type": "function"
    },
    {
      "inputs": [
        {
          "internalType": "address",
          "name": "_patient",
          "type": "address"
        },
        {
          "internalType": "string",
          "name": "_examName",
          "type": "string"
        },
        {
          "components": [
            {
              "internalType": "ctUint64",
              "name": "ciphertext",
              "type": "uint256"
            },
            {
              "internalType": "bytes",
              "name": "signature",
              "type": "bytes"
            }
          ],
          "internalType": "struct itUint64",
          "name": "_encryptedValue",
          "type": "tuple"
        }
      ],
      "name": "addMedicalRecord",
      "outputs": [
        {
          "internalType": "uint256",
          "name": "recordId",
          "type": "uint256"
        }
      ],
      "stateMutability": "nonpayable",
      "type": "function"
    },
    {
      "inputs": [
        {
          "internalType": "address",
          "name": "_doctor",
          "type": "address"
        }
      ],
      "name": "authorizeDoctor",
      "outputs": [],
      "stateMutability": "nonpayable",
      "type": "function"
    },
    {
      "inputs": [
        {
          "internalType": "uint256",
          "name": "_recordId",
          "type": "uint256"
        }
      ],
      "name": "deactivateRecord",
      "outputs": [],
      "stateMutability": "nonpayable",
      "type": "function"
    },
    {
      "inputs": [
        {
          "internalType": "address",
          "name": "_doctor",
          "type": "address"
        }
      ],
      "name": "getDoctorInfo",
      "outputs": [
        {
          "internalType": "string",
          "name": "name",
          "type": "string"
        },
        {
          "internalType": "string",
          "name": "specialty",
          "type": "string"
        },
        {
          "internalType": "bool",
          "name": "isVerified",
          "type": "bool"
        },
        {
          "internalType": "uint256",
          "name": "registrationDate",
          "type": "uint256"
        }
      ],
      "stateMutability": "view",
      "type": "function"
    },
    {
      "inputs": [
        {
          "internalType": "address",
          "name": "_patient",
          "type": "address"
        }
      ],
      "name": "getPatientRecordCount",
      "outputs": [
        {
          "internalType": "uint256",
          "name": "count",
          "type": "uint256"
        }
      ],
      "stateMutability": "view",
      "type": "function"
    },
    {
      "inputs": [
        {
          "internalType": "address",
          "name": "_patient",
          "type": "address"
        },
        {
          "internalType": "uint256",
          "name": "_recordId",
          "type": "uint256"
        }
      ],
      "name": "getRecordForDoctor",
      "outputs": [
        {
          "internalType": "ctUint64",
          "name": "valueForDoctor",
          "type": "uint256"
        }
      ],
      "stateMutability": "nonpayable",
      "type": "function"
    },
    {
      "inputs": [
        {
          "internalType": "uint256",
          "name": "_recordId",
          "type": "uint256"
        }
      ],
      "name": "getRecordForPatient",
      "outputs": [
        {
          "internalType": "ctUint64",
          "name": "valueForPatient",
          "type": "uint256"
        }
      ],
      "stateMutability": "nonpayable",
      "type": "function"
    },
    {
      "inputs": [
        {
          "internalType": "address",
          "name": "_patient",
          "type": "address"
        },
        {
          "internalType": "uint256",
          "name": "_recordId",
          "type": "uint256"
        }
      ],
      "name": "getRecordMetadata",
      "outputs": [
        {
          "internalType": "string",
          "name": "examName",
          "type": "string"
        },
        {
          "internalType": "uint256",
          "name": "timestamp",
          "type": "uint256"
        },
        {
          "internalType": "address",
          "name": "doctor",
          "type": "address"
        },
        {
          "internalType": "bool",
          "name": "isActive",
          "type": "bool"
        }
      ],
      "stateMutability": "view",
      "type": "function"
    },
    {
      "inputs": [
        {
          "internalType": "bytes32",
          "name": "role",
          "type": "bytes32"
        }
      ],
      "name": "getRoleAdmin",
      "outputs": [
        {
          "internalType": "bytes32",
          "name": "",
          "type": "bytes32"
        }
      ],
      "stateMutability": "view",
      "type": "function"
    },
    {
      "inputs": [
        {
          "internalType": "bytes32",
          "name": "role",
          "type": "bytes32"
        },
        {
          "internalType": "address",
          "name": "account",
          "type": "address"
        }
      ],
      "name": "grantRole",
      "outputs": [],
      "stateMutability": "nonpayable",
      "type": "function"
    },
    {
      "inputs": [
        {
          "internalType": "bytes32",
          "name": "role",
          "type": "bytes32"
        },
        {
          "internalType": "address",
          "name": "account",
          "type": "address"
        }
      ],
      "name": "hasRole",
      "outputs": [
        {
          "internalType": "bool",
          "name": "",
          "type": "bool"
        }
      ],
      "stateMutability": "view",
      "type": "function"
    },
    {
      "inputs": [
        {
          "internalType": "address",
          "name": "_patient",
          "type": "address"
        },
        {
          "internalType": "address",
          "name": "_doctor",
          "type": "address"
        }
      ],
      "name": "isDoctorAuthorized",
      "outputs": [
        {
          "internalType": "bool",
          "name": "authorized",
          "type": "bool"
        }
      ],
      "stateMutability": "view",
      "type": "function"
    },
    {
      "inputs": [
        {
          "internalType": "address",
          "name": "_patient",
          "type": "address"
        }
      ],
      "name": "patientHasRecords",
      "outputs": [
        {
          "internalType": "bool",
          "name": "hasRecords",
          "type": "bool"
        }
      ],
      "stateMutability": "view",
      "type": "function"
    },
    {
      "inputs": [
        {
          "internalType": "address",
          "name": "_doctorAddress",
          "type": "address"
        },
        {
          "internalType": "string",
          "name": "_name",
          "type": "string"
        },
        {
          "internalType": "string",
          "name": "_specialty",
          "type": "string"
        }
      ],
      "name": "registerDoctor",
      "outputs": [],
      "stateMutability": "nonpayable",
      "type": "function"
    },
    {
      "inputs": [
        {
          "internalType": "bytes32",
          "name": "role",
          "type": "bytes32"
        },
        {
          "internalType": "address",
          "name": "account",
          "type": "address"
        }
      ],
      "name": "renounceRole",
      "outputs": [],
      "stateMutability": "nonpayable",
      "type": "function"
    },
    {
      "inputs": [
        {
          "internalType": "address",
          "name": "_doctor",
          "type": "address"
        }
      ],
      "name": "revokeDoctor",
      "outputs": [],
      "stateMutability": "nonpayable",
      "type": "function"
    },
    {
      "inputs": [
        {
          "internalType": "bytes32",
          "name": "role",
          "type": "bytes32"
        },
        {
          "internalType": "address",
          "name": "account",
          "type": "address"
        }
      ],
      "name": "revokeRole",
      "outputs": [],
      "stateMutability": "nonpayable",
      "type": "function"
    },
    {
      "inputs": [
        {
          "internalType": "bytes4",
          "name": "interfaceId",
          "type": "bytes4"
        }
      ],
      "name": "supportsInterface",
      "outputs": [
        {
          "internalType": "bool",
          "name": "",
          "type": "bool"
        }
      ],
      "stateMutability": "view",
      "type": "function"
    }
  ],
  "bytecode": "0x60806040523480156200001157600080fd5b50600180556200002360003362000055565b6200004f7fa49807205ce4d355092ef5a8a18f56e8913cf4a201fbe287825b095693c217753362000055565b62000105565b62000061828262000065565b5050565b6000828152602081815260408083206001600160a01b038516845290915290205460ff1662000061576000828152602081815260408083206001600160a01b03851684529091529020805460ff19166001179055620000c13390565b6001600160a01b0316816001600160a01b0316837f2f8788117e7eff1d82e926ec794901d17c78024a50270940304540a733656f0d60405160405180910390a45050565b6124ee80620001156000396000f3fe608060405234801561001057600080fd5b506004361061014d5760003560e01c80636f12fc35116100c3578063a217fddf1161007c578063a217fddf14610303578063c864370a1461030b578063d547741f1461031e578063d9c93d0b14610331578063e8b2338614610344578063fec331f21461035757600080fd5b80636f12fc351461027657806375b238fc1461029957806379a94bd2146102c05780637c5b8216146102d35780637dd58c12146102e657806391d14854146102f057600080fd5b8063248a9ca311610115578063248a9ca3146101e65780632f2ff15d1461020957806336568abe1461021c57806353d08ef41461022f57806358c9202c146102425780635aad1e281461025557600080fd5b806301ffc9a7146101525780630416af271461017a57806307578ae31461018f5780630a9682ad146101b257806319c1833f146101d3575b600080fd5b610165610160366004611d20565b61036c565b60405190151581526020015b60405180910390f35b61018d610188366004611d66565b6103a3565b005b6101a261019d366004611d81565b6104a1565b6040516101719493929190611dfb565b6101c56101c0366004611d66565b6106f8565b604051908152602001610171565b61018d6101e1366004611e35565b6107ec565b6101c56101f4366004611e35565b60009081526020819052604090206001015490565b61018d610217366004611e4e565b6108f2565b61018d61022a366004611e4e565b61091c565b61018d61023d366004611f26565b61099a565b61018d610250366004611d66565b610bd3565b61025d600081565b60405167ffffffffffffffff9091168152602001610171565b610289610284366004611d66565b610d9d565b6040516101719493929190611f9a565b6101c57fa49807205ce4d355092ef5a8a18f56e8913cf4a201fbe287825b095693c2177581565b6101656102ce366004611fd3565b610f21565b6101656102e1366004611d66565b610f9e565b61025d620f424081565b6101656102fe366004611e4e565b610fe5565b6101c5600081565b6101c5610319366004611ffd565b61100e565b61018d61032c366004611e4e565b61133f565b6101c561033f366004611d81565b611364565b6101c5610352366004611e35565b611598565b6101c560008051602061249983398151915281565b60006001600160e01b03198216637965db0b60e01b148061039d57506301ffc9a760e01b6001600160e01b03198316145b92915050565b6001600160a01b0381166103d25760405162461bcd60e51b81526004016103c990612078565b60405180910390fd5b3360009081526005602090815260408083206001600160a01b038516845290915290205460ff1661043d5760405162461bcd60e51b8152602060048201526015602482015274111bd8dd1bdc881b9bdd08185d5d1a1bdc9a5e9959605a1b60448201526064016103c9565b3360008181526005602090815260408083206001600160a01b03861680855290835292819020805460ff19169055514281529192917fcb4aa3c8bb999d3c18a2a506e7eb2ec157c3e481084baa934834e955c56242e891015b60405180910390a350565b6060600080806001600160a01b0386166104cd5760405162461bcd60e51b81526004016103c9906120a8565b6001600160a01b03861660009081526006602052604090205460ff1661052e5760405162461bcd60e51b815260206004820152601660248201527550617469656e7420686173206e6f207265636f72647360501b60448201526064016103c9565b6001600160a01b03861660009081526003602052604090205485106105655760405162461bcd60e51b81526004016103c9906120df565b336001600160a01b03871614806105bd57506001600160a01b038616600090815260056020908152604080832033845290915290205460ff1680156105bd57506105bd60008051602061249983398151915233610fe5565b6106185760405162461bcd60e51b815260206004820152602660248201527f4e6f7420617574686f72697a656420746f2076696577207265636f7264206d6560448201526574616461746160d01b60648201526084016103c9565b6001600160a01b0386811660009081526002602081815260408084208a855290915290912090810154600482015482549293849390821691600160a01b900460ff169084906106669061210e565b80601f01602080910402602001604051908101604052809291908181526020018280546106929061210e565b80156106df5780601f106106b4576101008083540402835291602001916106df565b820191906000526020600020905b8154815290600101906020018083116106c257829003601f168201915b5050505050935094509450945094505092959194509250565b60006001600160a01b0382166107205760405162461bcd60e51b81526004016103c9906120a8565b336001600160a01b038316148061077857506001600160a01b038216600090815260056020908152604080832033845290915290205460ff168015610778575061077860008051602061249983398151915233610fe5565b6107d05760405162461bcd60e51b815260206004820152602360248201527f4e6f7420617574686f72697a656420746f2076696577207265636f726420636f6044820152621d5b9d60ea1b60648201526084016103c9565b506001600160a01b031660009081526003602052604090205490565b3360009081526006602052604090205460ff1661083e5760405162461bcd60e51b815260206004820152601060248201526f139bc81c9958dbdc991cc8199bdd5b9960821b60448201526064016103c9565b33600090815260036020526040902054811061086c5760405162461bcd60e51b81526004016103c9906120df565b33600090815260026020908152604080832084845290915290206004810154600160a01b900460ff166108e15760405162461bcd60e51b815260206004820152601760248201527f5265636f726420616c726561647920696e61637469766500000000000000000060448201526064016103c9565b600401805460ff60a01b1916905550565b60008281526020819052604090206001015461090d816116e2565b61091783836116ef565b505050565b6001600160a01b038116331461098c5760405162461bcd60e51b815260206004820152602f60248201527f416363657373436f6e74726f6c3a2063616e206f6e6c792072656e6f756e636560448201526e103937b632b9903337b91039b2b63360891b60648201526084016103c9565b6109968282611773565b5050565b7fa49807205ce4d355092ef5a8a18f56e8913cf4a201fbe287825b095693c217756109c4816116e2565b6001600160a01b0384166109ea5760405162461bcd60e51b81526004016103c990612078565b6000835111610a325760405162461bcd60e51b81526020600482015260146024820152734e616d652063616e6e6f7420626520656d70747960601b60448201526064016103c9565b6000825111610a835760405162461bcd60e51b815260206004820152601960248201527f5370656369616c74792063616e6e6f7420626520656d7074790000000000000060448201526064016103c9565b6001600160a01b03841660009081526004602052604090206002015460ff1615610aef5760405162461bcd60e51b815260206004820152601960248201527f446f63746f7220616c726561647920726567697374657265640000000000000060448201526064016103c9565b6040805160808101825284815260208082018590526001828401524260608301526001600160a01b038716600090815260049091529190912081518190610b369082612196565b5060208201516001820190610b4b9082612196565b50604082015160028201805460ff1916911515919091179055606090910151600390910155610b88600080516020612499833981519152856117d8565b836001600160a01b03167fc866477e11ce160dd0fbfeb9662d2528e1a954fddd989afc3d9d3d14527ddee6848442604051610bc593929190612256565b60405180910390a250505050565b6001600160a01b038116610bf95760405162461bcd60e51b81526004016103c990612078565b610c1160008051602061249983398151915282610fe5565b610c685760405162461bcd60e51b815260206004820152602260248201527f41646472657373206973206e6f742061207265676973746572656420646f637460448201526137b960f11b60648201526084016103c9565b6001600160a01b03811660009081526004602052604090206002015460ff16610cc95760405162461bcd60e51b8152602060048201526013602482015272111bd8dd1bdc881b9bdd081d995c9a599a5959606a1b60448201526064016103c9565b3360009081526005602090815260408083206001600160a01b038516845290915290205460ff1615610d3d5760405162461bcd60e51b815260206004820152601960248201527f446f63746f7220616c726561647920617574686f72697a65640000000000000060448201526064016103c9565b3360008181526005602090815260408083206001600160a01b03861680855290835292819020805460ff19166001179055514281529192917fa2782683a48679f6592eb266e3cbaf913d2ef5e1bd0ce2e46b2c5bd9dfcbb0409101610496565b6060806000806001600160a01b038516610dc95760405162461bcd60e51b81526004016103c990612078565b6001600160a01b03851660009081526004602052604090206002810154600382015482548392600184019260ff909116918490610e059061210e565b80601f0160208091040260200160405190810160405280929190818152602001828054610e319061210e565b8015610e7e5780601f10610e5357610100808354040283529160200191610e7e565b820191906000526020600020905b815481529060010190602001808311610e6157829003601f168201915b50505050509350828054610e919061210e565b80601f0160208091040260200160405190810160405280929190818152602001828054610ebd9061210e565b8015610f0a5780601f10610edf57610100808354040283529160200191610f0a565b820191906000526020600020905b815481529060010190602001808311610eed57829003601f168201915b505050505092509450945094509450509193509193565b60006001600160a01b038316610f495760405162461bcd60e51b81526004016103c9906120a8565b6001600160a01b038216610f6f5760405162461bcd60e51b81526004016103c990612078565b506001600160a01b03918216600090815260056020908152604080832093909416825291909152205460ff1690565b60006001600160a01b038216610fc65760405162461bcd60e51b81526004016103c9906120a8565b506001600160a01b031660009081526006602052604090205460ff1690565b6000918252602082815260408084206001600160a01b0393909316845291905290205460ff1690565b6000600080516020612499833981519152611028816116e2565b6110306117e2565b6001600160a01b0385166110565760405162461bcd60e51b81526004016103c9906120a8565b60008451116110a75760405162461bcd60e51b815260206004820152601960248201527f4578616d206e616d652063616e6e6f7420626520656d7074790000000000000060448201526064016103c9565b3360009081526004602052604090206002015460ff166110ff5760405162461bcd60e51b8152602060048201526013602482015272111bd8dd1bdc881b9bdd081d995c9a599a5959606a1b60448201526064016103c9565b600061111261110d8561228c565b61183b565b9050600061112060006118b2565b90506000611130620f42406118b2565b9050600061113e84846118ed565b9050600061114c8584611983565b905061115782611998565b8015611167575061116781611998565b6111b35760405162461bcd60e51b815260206004820152601760248201527f4578616d2076616c7565206f7574206f662072616e676500000000000000000060448201526064016103c9565b6001600160a01b038a1660009081526003602052604081205497506111d786611a10565b6040805160c0810182528c8152602080820184905242828401526001600160a01b038f1660608301819052336080840152600160a08401526000908152600282528381208d8252909152919091208151929350909181906112389082612196565b50602082810151600183015560408084015160028401556060840151600380850180546001600160a01b039384166001600160a01b031990911617905560808601516004909501805460a0909701511515600160a01b026001600160a81b03199097169583169590951795909517909355918e16600090815292905281208054916112c283612321565b90915550506001600160a01b038b1660008181526006602052604090819020805460ff1916600117905551899133917fc79c360504826b58ad509f07a8162fe2568bb887c274649f4089c6b907deca9f90611320908f90429061233a565b60405180910390a450505050505061133760018055565b509392505050565b60008281526020819052604090206001015461135a816116e2565b6109178383611773565b600060008051602061249983398151915261137e816116e2565b6001600160a01b0384166113a45760405162461bcd60e51b81526004016103c9906120a8565b6001600160a01b03841660009081526006602052604090205460ff166114055760405162461bcd60e51b815260206004820152601660248201527550617469656e7420686173206e6f207265636f72647360501b60448201526064016103c9565b6001600160a01b038416600090815260036020526040902054831061143c5760405162461bcd60e51b81526004016103c9906120df565b6001600160a01b038416600090815260056020908152604080832033845290915290205460ff166114af5760405162461bcd60e51b815260206004820181905260248201527f446f63746f72206e6f7420617574686f72697a65642062792070617469656e7460448201526064016103c9565b6001600160a01b038416600090815260026020908152604080832086845290915290206004810154600160a01b900460ff166115245760405162461bcd60e51b81526020600482015260146024820152735265636f7264206973206e6f742061637469766560601b60448201526064016103c9565b60006115338260010154611a52565b905061153f8133611a62565b935084336001600160a01b0316876001600160a01b03167fd165081cf93934bf7162074ed4b10710ce20ceea0d9759027d5612c5ae404edc4260405161158791815260200190565b60405180910390a450505092915050565b3360009081526006602052604081205460ff166115ea5760405162461bcd60e51b815260206004820152601060248201526f139bc81c9958dbdc991cc8199bdd5b9960821b60448201526064016103c9565b3360009081526003602052604090205482106116185760405162461bcd60e51b81526004016103c9906120df565b33600090815260026020908152604080832085845290915290206004810154600160a01b900460ff166116845760405162461bcd60e51b81526020600482015260146024820152735265636f7264206973206e6f742061637469766560601b60448201526064016103c9565b60006116938260010154611a52565b905061169f8133611a62565b6040514281529093508490339081907fd165081cf93934bf7162074ed4b10710ce20ceea0d9759027d5612c5ae404edc9060200160405180910390a45050919050565b6116ec8133611abc565b50565b6116f98282610fe5565b610996576000828152602081815260408083206001600160a01b03851684529091529020805460ff1916600117905561172f3390565b6001600160a01b0316816001600160a01b0316837f2f8788117e7eff1d82e926ec794901d17c78024a50270940304540a733656f0d60405160405180910390a45050565b61177d8282610fe5565b15610996576000828152602081815260408083206001600160a01b0385168085529252808320805460ff1916905551339285917ff6391f5c32d9c69d2a47ea670b442974b53935d1edc7fd64eb21e047a839171b9190a45050565b61099682826116ef565b6002600154036118345760405162461bcd60e51b815260206004820152601f60248201527f5265656e7472616e637947756172643a207265656e7472616e742063616c6c0060448201526064016103c9565b6002600155565b80516020820151604051630e4f36e160e41b815260009260649263e4f36e109261186f92600160fa1b929091600401612372565b6020604051808303816000875af115801561188e573d6000803e3d6000fd5b505050506040513d601f19601f8201168201806040525081019061039d91906123a0565b6040516306cdb05b60e51b8152600160fa1b600482015267ffffffffffffffff8216602482015260009060649063d9b60b609060440161186f565b6000606463813b207461190260048085611b15565b6040516001600160e01b031960e084901b1681526001600160e81b0319909116600482015260248101869052604481018590526064015b6020604051808303816000875af1158015611958573d6000803e3d6000fd5b505050506040513d601f19601f8201168201806040525081019061197c91906123a0565b9392505050565b6000606463145fca2c61190260048085611b15565b604051630cfed56160e01b815260006004820181905260248201839052908190606490630cfed561906044016020604051808303816000875af11580156119e3573d6000803e3d6000fd5b505050506040513d601f19601f82011682018060405250810190611a0791906123a0565b15159392505050565b6000606463c50c9c0260045b60f81b846040518363ffffffff1660e01b815260040161186f9291906001600160f81b0319929092168252602082015260400190565b6000606463d2c135e56004611a1c565b60408051606083901b6bffffffffffffffffffffffff1916602082015281516014818303018152603482019283905263078de1cd60e31b909252600091606491633c6f0e689161193991600160fa1b918891603801612372565b611ac68282610fe5565b61099657611ad381611b72565b611ade836020611b84565b604051602001611aef9291906123b9565b60408051601f198184030181529082905262461bcd60e51b82526103c99160040161242e565b6000816002811115611b2957611b2961235c565b60ff166008846004811115611b4057611b4061235c565b61ffff16901b61ffff166010866004811115611b5e57611b5e61235c565b62ffffff16901b171760e81b949350505050565b606061039d6001600160a01b03831660145b60606000611b93836002612441565b611b9e906002612458565b67ffffffffffffffff811115611bb657611bb6611e7a565b6040519080825280601f01601f191660200182016040528015611be0576020820181803683370190505b509050600360fc1b81600081518110611bfb57611bfb61246b565b60200101906001600160f81b031916908160001a905350600f60fb1b81600181518110611c2a57611c2a61246b565b60200101906001600160f81b031916908160001a9053506000611c4e846002612441565b611c59906001612458565b90505b6001811115611cd1576f181899199a1a9b1b9c1cb0b131b232b360811b85600f1660108110611c8d57611c8d61246b565b1a60f81b828281518110611ca357611ca361246b565b60200101906001600160f81b031916908160001a90535060049490941c93611cca81612481565b9050611c5c565b50831561197c5760405162461bcd60e51b815260206004820181905260248201527f537472696e67733a20686578206c656e67746820696e73756666696369656e7460448201526064016103c9565b600060208284031215611d3257600080fd5b81356001600160e01b03198116811461197c57600080fd5b80356001600160a01b0381168114611d6157600080fd5b919050565b600060208284031215611d7857600080fd5b61197c82611d4a565b60008060408385031215611d9457600080fd5b611d9d83611d4a565b946020939093013593505050565b60005b83811015611dc6578181015183820152602001611dae565b50506000910152565b60008151808452611de7816020860160208601611dab565b601f01601f19169290920160200192915050565b608081526000611e0e6080830187611dcf565b6020830195909552506001600160a01b039290921660408301521515606090910152919050565b600060208284031215611e4757600080fd5b5035919050565b60008060408385031215611e6157600080fd5b82359150611e7160208401611d4a565b90509250929050565b634e487b7160e01b600052604160045260246000fd5b600067ffffffffffffffff80841115611eab57611eab611e7a565b604051601f8501601f19908116603f01168101908282118183101715611ed357611ed3611e7a565b81604052809350858152868686011115611eec57600080fd5b858560208301376000602087830101525050509392505050565b600082601f830112611f1757600080fd5b61197c83833560208501611e90565b600080600060608486031215611f3b57600080fd5b611f4484611d4a565b9250602084013567ffffffffffffffff80821115611f6157600080fd5b611f6d87838801611f06565b93506040860135915080821115611f8357600080fd5b50611f9086828701611f06565b9150509250925092565b608081526000611fad6080830187611dcf565b8281036020840152611fbf8187611dcf565b941515604084015250506060015292915050565b60008060408385031215611fe657600080fd5b611fef83611d4a565b9150611e7160208401611d4a565b60008060006060848603121561201257600080fd5b61201b84611d4a565b9250602084013567ffffffffffffffff8082111561203857600080fd5b61204487838801611f06565b9350604086013591508082111561205a57600080fd5b5084016040818703121561206d57600080fd5b809150509250925092565b602080825260169082015275496e76616c696420646f63746f72206164647265737360501b604082015260600190565b60208082526017908201527f496e76616c69642070617469656e742061646472657373000000000000000000604082015260600190565b602080825260159082015274149958dbdc9908191bd95cc81b9bdd08195e1a5cdd605a1b604082015260600190565b600181811c9082168061212257607f821691505b60208210810361214257634e487b7160e01b600052602260045260246000fd5b50919050565b601f82111561091757600081815260208120601f850160051c8101602086101561216f5750805b601f850160051c820191505b8181101561218e5782815560010161217b565b505050505050565b815167ffffffffffffffff8111156121b0576121b0611e7a565b6121c4816121be845461210e565b84612148565b602080601f8311600181146121f957600084156121e15750858301515b600019600386901b1c1916600185901b17855561218e565b600085815260208120601f198616915b8281101561222857888601518255948401946001909101908401612209565b50858210156122465787850151600019600388901b60f8161c191681555b5050505050600190811b01905550565b6060815260006122696060830186611dcf565b828103602084015261227b8186611dcf565b915050826040830152949350505050565b60006040823603121561229e57600080fd5b6040516040810167ffffffffffffffff82821081831117156122c2576122c2611e7a565b816040528435835260208501359150808211156122de57600080fd5b50830136601f8201126122f057600080fd5b6122ff36823560208401611e90565b60208301525092915050565b634e487b7160e01b600052601160045260246000fd5b6000600182016123335761233361230b565b5060010190565b60408152600061234d6040830185611dcf565b90508260208301529392505050565b634e487b7160e01b600052602160045260246000fd5b60ff60f81b841681528260208201526060604082015260006123976060830184611dcf565b95945050505050565b6000602082840312156123b257600080fd5b5051919050565b7f416363657373436f6e74726f6c3a206163636f756e74200000000000000000008152600083516123f1816017850160208801611dab565b7001034b99036b4b9b9b4b733903937b6329607d1b6017918401918201528351612422816028840160208801611dab565b01602801949350505050565b60208152600061197c6020830184611dcf565b808202811582820484141761039d5761039d61230b565b8082018082111561039d5761039d61230b565b634e487b7160e01b600052603260045260246000fd5b6000816124905761249061230b565b50600019019056fe0af1dac7dea2fd7f7738119cec7df099dfad49aa9d2e7d17ba6b60f63ae7411fa2646970667358221220a3cea4b7d4215a7dbe68b37c773c1e35beb1e7ad1f00e249c4c11cdde5eca48c64736f6c63430008130033",
  "linkReferences": {},
  "deployedLinkReferences": {}
}